S0160000596F7576655F476F745F4D61696C2E737265638B
S113000013C01AC019C018C017C016C015C014C038
S113001013C012C011C010C00FC00EC00DC00CC060
S11300200BC00AC009C008C011241FBECFEFD1E025
S1130030DEBFCDBF38D03EC0E3CFA0E0B0E0880F34
S1130040991FAA1FBB1F880F991FAA1FBB1FAC01B2
S1130050BD01440F551F661F771F440F551F661FB0
S1130060771F840F951FA61FB71FAC01BD01440F56
S1130070551F661F771F440F551F661F771F840F78
S1130080951FA61FB71F0097A105B10539F0019769
S1130090A109B1090097A105B105C9F70895389AD6
S11300A081E086B9FECFFBDFC1E0C6B988EE93E0FC
S10B00B0C4DFFBCFF894FFCF7D
S9030000FC
